{
  "address": "0x4D80104E7e642e5f084030F6Da4e6f2B4f3B97ca",
  "abi": [
    {
      "inputs": [],
      "stateMutability": "nonpayable",
      "type": "constructor"
    },
    {
      "anonymous": false,
      "inputs": [
        {
          "indexed": false,
          "internalType": "address",
          "name": "sender",
          "type": "address"
        },
        {
          "indexed": false,
          "internalType": "uint256",
          "name": "amount",
          "type": "uint256"
        }
      ],
      "name": "Received",
      "type": "event"
    },
    {
      "stateMutability": "payable",
      "type": "fallback"
    },
    {
      "inputs": [
        {
          "internalType": "address",
          "name": "",
          "type": "address"
        }
      ],
      "name": "_childSavings",
      "outputs": [
        {
          "internalType": "uint256",
          "name": "childAge",
          "type": "uint256"
        },
        {
          "internalType": "uint256",
          "name": "amount",
          "type": "uint256"
        },
        {
          "internalType": "uint256",
          "name": "targetChild",
          "type": "uint256"
        },
        {
          "internalType": "address payable",
          "name": "childAddress",
          "type": "address"
        },
        {
          "internalType": "address",
          "name": "fatherAddress",
          "type": "address"
        },
        {
          "internalType": "uint256",
          "name": "canWithdraw",
          "type": "uint256"
        },
        {
          "internalType": "bool",
          "name": "deposited",
          "type": "bool"
        }
      ],
      "stateMutability": "view",
      "type": "function"
    },
    {
      "inputs": [
        {
          "internalType": "uint256",
          "name": "",
          "type": "uint256"
        }
      ],
      "name": "_savings",
      "outputs": [
        {
          "internalType": "address payable",
          "name": "owner",
          "type": "address"
        },
        {
          "internalType": "uint256",
          "name": "savingsAmount",
          "type": "uint256"
        },
        {
          "internalType": "uint256",
          "name": "target",
          "type": "uint256"
        },
        {
          "internalType": "uint256",
          "name": "startDate",
          "type": "uint256"
        },
        {
          "internalType": "uint256",
          "name": "endDate",
          "type": "uint256"
        },
        {
          "internalType": "string",
          "name": "purpose",
          "type": "string"
        },
        {
          "internalType": "bool",
          "name": "isInitiated",
          "type": "bool"
        },
        {
          "internalType": "bool",
          "name": "forceWithdraw",
          "type": "bool"
        },
        {
          "internalType": "bool",
          "name": "inSaving",
          "type": "bool"
        },
        {
          "internalType": "enum Esusu.SavingsStatus",
          "name": "savingStatus",
          "type": "uint8"
        },
        {
          "internalType": "uint256",
          "name": "nonce",
          "type": "uint256"
        }
      ],
      "stateMutability": "view",
      "type": "function"
    },
    {
      "inputs": [
        {
          "internalType": "uint256",
          "name": "",
          "type": "uint256"
        },
        {
          "internalType": "address",
          "name": "",
          "type": "address"
        }
      ],
      "name": "_txHistory",
      "outputs": [
        {
          "internalType": "uint256",
          "name": "savingsNonce",
          "type": "uint256"
        },
        {
          "internalType": "string",
          "name": "purpose",
          "type": "string"
        },
        {
          "internalType": "uint256",
          "name": "amount",
          "type": "uint256"
        },
        {
          "internalType": "address payable",
          "name": "owner",
          "type": "address"
        },
        {
          "internalType": "uint256",
          "name": "totalDeposit",
          "type": "uint256"
        },
        {
          "internalType": "uint256",
          "name": "time",
          "type": "uint256"
        }
      ],
      "stateMutability": "view",
      "type": "function"
    },
    {
      "inputs": [],
      "name": "childAddress",
      "outputs": [
        {
          "internalType": "address payable",
          "name": "",
          "type": "address"
        }
      ],
      "stateMutability": "view",
      "type": "function"
    },
    {
      "inputs": [],
      "name": "currentTimeStap",
      "outputs": [
        {
          "internalType": "uint256",
          "name": "",
          "type": "uint256"
        }
      ],
      "stateMutability": "view",
      "type": "function"
    },
    {
      "inputs": [
        {
          "internalType": "uint256",
          "name": "_target",
          "type": "uint256"
        },
        {
          "internalType": "address",
          "name": "_father",
          "type": "address"
        }
      ],
      "name": "depositChildSavingsReg",
      "outputs": [],
      "stateMutability": "payable",
      "type": "function"
    },
    {
      "inputs": [
        {
          "internalType": "address",
          "name": "_childAddress",
          "type": "address"
        }
      ],
      "name": "depositForChild",
      "outputs": [],
      "stateMutability": "payable",
      "type": "function"
    },
    {
      "inputs": [
        {
          "internalType": "uint256",
          "name": "_savinsLen",
          "type": "uint256"
        }
      ],
      "name": "depositSave",
      "outputs": [],
      "stateMutability": "payable",
      "type": "function"
    },
    {
      "inputs": [],
      "name": "forceWithdraw",
      "outputs": [],
      "stateMutability": "nonpayable",
      "type": "function"
    },
    {
      "inputs": [
        {
          "internalType": "uint256",
          "name": "_savinsLen",
          "type": "uint256"
        },
        {
          "internalType": "address",
          "name": "_owner",
          "type": "address"
        }
      ],
      "name": "getSavings",
      "outputs": [
        {
          "internalType": "address",
          "name": "",
          "type": "address"
        },
        {
          "internalType": "uint256",
          "name": "",
          "type": "uint256"
        },
        {
          "internalType": "uint256",
          "name": "",
          "type": "uint256"
        },
        {
          "internalType": "string",
          "name": "",
          "type": "string"
        },
        {
          "internalType": "bool",
          "name": "",
          "type": "bool"
        },
        {
          "internalType": "bool",
          "name": "",
          "type": "bool"
        },
        {
          "internalType": "bool",
          "name": "",
          "type": "bool"
        },
        {
          "internalType": "enum Esusu.SavingsStatus",
          "name": "",
          "type": "uint8"
        }
      ],
      "stateMutability": "view",
      "type": "function"
    },
    {
      "inputs": [
        {
          "internalType": "string",
          "name": "_purpose",
          "type": "string"
        },
        {
          "internalType": "uint256",
          "name": "_targetAmount",
          "type": "uint256"
        }
      ],
      "name": "initialSaving",
      "outputs": [],
      "stateMutability": "nonpayable",
      "type": "function"
    },
    {
      "inputs": [],
      "name": "number_of_deposits",
      "outputs": [
        {
          "internalType": "uint256",
          "name": "",
          "type": "uint256"
        }
      ],
      "stateMutability": "view",
      "type": "function"
    },
    {
      "inputs": [
        {
          "internalType": "address",
          "name": "_childAddress",
          "type": "address"
        }
      ],
      "name": "saveMoreForChild",
      "outputs": [],
      "stateMutability": "payable",
      "type": "function"
    },
    {
      "inputs": [],
      "name": "savinsLen",
      "outputs": [
        {
          "internalType": "uint256",
          "name": "",
          "type": "uint256"
        }
      ],
      "stateMutability": "view",
      "type": "function"
    },
    {
      "inputs": [
        {
          "internalType": "uint256",
          "name": "_savinsLen",
          "type": "uint256"
        }
      ],
      "name": "targetReach",
      "outputs": [],
      "stateMutability": "nonpayable",
      "type": "function"
    },
    {
      "inputs": [],
      "name": "txHistoryLen",
      "outputs": [
        {
          "internalType": "uint256",
          "name": "",
          "type": "uint256"
        }
      ],
      "stateMutability": "view",
      "type": "function"
    },
    {
      "inputs": [
        {
          "internalType": "address",
          "name": "_child",
          "type": "address"
        }
      ],
      "name": "withdraw",
      "outputs": [],
      "stateMutability": "nonpayable",
      "type": "function"
    },
    {
      "stateMutability": "payable",
      "type": "receive"
    }
  ],
  "transactionHash": "0xc03af73821a5fa254a236418459222ba300133c64c1c3a68f15d2786a66f1a9f",
  "args": [],
  "numDeployments": 7,
  "solcInputHash": "fa6f9dd1577d8d6f0b149b7c8b71612e",
  "bytecode": "0x6080604052426004819055610018906321d59f0061002d565b60055534801561002757600080fd5b50610054565b8082018082111561004e57634e487b7160e01b600052601160045260246000fd5b92915050565b611347806100636000396000f3fe6080604052600436106100f65760003560e01c80639382101e1161008f578063b8a947de11610061578063b8a947de1461030c578063bfe1442214610344578063c265418114610357578063ce640ba71461036d578063dea605751461038057005b80639382101e1461028c578063a84823c7146102ac578063adf562fe146102c2578063b13a186e146102f657005b806351cff8d9116100c857806351cff8d914610216578063567fd10c14610236578063763244671461026d5780637be80b391461028057005b80630139c022146100ff5780630b8ca1d1146101ad5780631ccfeec9146101c05780631fb89f69146101e457005b366100fd57005b005b34801561010b57600080fd5b5061016861011a366004610d9e565b600660208190526000918252604090912080546001820154600283015460038401546004850154600586015495909601549395929491936001600160a01b0391821693909116919060ff1687565b604080519788526020880196909652948601939093526001600160a01b03918216606086015216608084015260a0830152151560c082015260e0015b60405180910390f35b6100fd6101bb366004610dc0565b6103a0565b3480156101cc57600080fd5b506101d660015481565b6040519081526020016101a4565b3480156101f057600080fd5b506102046101ff366004610dc0565b61046b565b6040516101a496959493929190610e32565b34801561022257600080fd5b506100fd610231366004610d9e565b61053e565b34801561024257600080fd5b50610256610251366004610e79565b6106f2565b6040516101a49b9a99989796959493929190610eb4565b6100fd61027b366004610d9e565b6107e9565b3480156100fd57600080fd5b34801561029857600080fd5b506100fd6102a7366004610f45565b610848565b3480156102b857600080fd5b506101d660045481565b3480156102ce57600080fd5b506102e26102dd366004610dc0565b6108b9565b6040516101a4989796959493929190610ffa565b34801561030257600080fd5b506101d660005481565b34801561031857600080fd5b5060035461032c906001600160a01b031681565b6040516001600160a01b0390911681526020016101a4565b6100fd610352366004610d9e565b610a21565b34801561036357600080fd5b506101d660025481565b6100fd61037b366004610e79565b610a73565b34801561038c57600080fd5b506100fd61039b366004610e79565b610bcb565b336000818152600660205260409020600301546001600160a01b0316900361040f5760405162461bcd60e51b815260206004820152601e60248201527f416c7265616479206861766520616e206163636f756e7420736176696e67000060448201526064015b60405180910390fd5b336000818152600660208190526040909120600281018590559384556003840180546001600160a01b031990811690931790556004840180549092166001600160a01b039390931692909217905501805460ff19166001179055565b6007602090815260009283526040808420909152908252902080546001820180549192916104989061105d565b80601f01602080910402602001604051908101604052809291908181526020018280546104c49061105d565b80156105115780601f106104e657610100808354040283529160200191610511565b820191906000526020600020905b8154815290600101906020018083116104f457829003601f168201915b50505050600283015460038401546004850154600590950154939491936001600160a01b03909116925086565b336000818152600660205260409020600301546001600160a01b0316146105c05760405162461bcd60e51b815260206004820152603060248201527f63616e742077697468647261772066756e64206265636175736520697473206e60448201526f6f74206368696c64206164647265737360801b6064820152608401610406565b3360009081526006602052604090206002810154600182015410156106185760405162461bcd60e51b815260206004820152600e60248201526d139bdd081e595d081d185c99d95d60921b6044820152606401610406565b6001600160a01b0382811660009081526006602052604080822060010154600385015491519093919091169083908381818185875af1925050503d806000811461067e576040519150601f19603f3d011682016040523d82523d6000602084013e610683565b606091505b50509050806106cb5760405162461bcd60e51b81526020600482015260146024820152732330b4b632b2103a379039b2b7321022ba3432b960611b6044820152606401610406565b5050506001600160a01b031660009081526006602052604081206001810182905560020155565b6008602052600090815260409020805460018201546002830154600384015460048501546005860180546001600160a01b039096169694959394929391929161073a9061105d565b80601f01602080910402602001604051908101604052809291908181526020018280546107669061105d565b80156107b35780601f10610788576101008083540402835291602001916107b3565b820191906000526020600020905b81548152906001019060200180831161079657829003601f168201915b5050506006840154600790940154929360ff8082169461010083048216945062010000830482169350630100000090920416908b565b6001600160a01b03811660009081526006602052604090203461081e5760405162461bcd60e51b815260040161040690611097565b3481600101600082825461083291906110f5565b9091555050600601805460ff1916600117905550565b6002805460009160089183918261085e8361110e565b909155508152602081019190915260400160002080546001600160a01b031916331781554260038201559050600581016108988482611176565b5060068101805463ff00ffff19166001179055600280546007830155015550565b600080600060606000806000808960025410156109085760405162461bcd60e51b815260206004820152600d60248201526c092dcc2ecd8d2c84092dcc8caf609b1b6044820152606401610406565b60008a815260086020526040902080546001600160a01b03908116908b1603610a125780546001820154600283015460068401546005850180546001600160a01b0390951694909160ff80821692610100830482169262010000810483169263010000009091041690859061097c9061105d565b80601f01602080910402602001604051908101604052809291908181526020018280546109a89061105d565b80156109f55780601f106109ca576101008083540402835291602001916109f5565b820191906000526020600020905b8154815290600101906020018083116109d857829003601f168201915b505050505094509850985098509850985098509850985050610a14565b505b9295985092959890939650565b6001600160a01b038116600090815260066020526040902034610a565760405162461bcd60e51b815260040161040690611097565b34816001016000828254610a6a91906110f5565b90915550505050565b6000818152600860205260409020546001600160a01b03163314610ad95760405162461bcd60e51b815260206004820152601960248201527f596f752063616e277420696e697469616c206465706f736974000000000000006044820152606401610406565b600081815260086020908152604080832060015484526007835281842081546001600160a01b0316855290925290912034610b265760405162461bcd60e51b815260040161040690611097565b34826001016000828254610b3a91906110f5565b9250508190555034816002016000828254610b5591906110f5565b909155505060068201805463ff0000001916630100000017905582815581546003820180546001600160a01b0319166001600160a01b03909216919091179055426005808301919091556001820190610bb090840182611236565b5060018054906000610bc18361110e565b9190505550505050565b6000818152600860205260409020546001600160a01b03163314610c405760405162461bcd60e51b815260206004820152602660248201527f596f7520646f6e742068617665206163636f756e7420696e697469616c20776960448201526574686472617760d01b6064820152608401610406565b6000818152600860205260409020600181015460028201541115610cbd5760405162461bcd60e51b815260206004820152602e60248201527f54686520746172676574206d757374207265616368206265666f726520796f7560448201526d01031b0b7103bb4ba34323930bb960951b6064820152608401610406565b600281015481546040516000916001600160a01b03169083908381818185875af1925050503d8060008114610d0e576040519150601f19603f3d011682016040523d82523d6000602084013e610d13565b606091505b5050905080610d5b5760405162461bcd60e51b81526020600482015260146024820152732330b4b632b2103a379039b2b7321022ba3432b960611b6044820152606401610406565b50506000600282018190556001820155600601805463ff0000001916630200000017905550565b80356001600160a01b0381168114610d9957600080fd5b919050565b600060208284031215610db057600080fd5b610db982610d82565b9392505050565b60008060408385031215610dd357600080fd5b82359150610de360208401610d82565b90509250929050565b6000815180845260005b81811015610e1257602081850181015186830182015201610df6565b506000602082860101526020601f19601f83011685010191505092915050565b86815260c060208201526000610e4b60c0830188610dec565b6040830196909652506001600160a01b03939093166060840152608083019190915260a09091015292915050565b600060208284031215610e8b57600080fd5b5035919050565b60038110610eb057634e487b7160e01b600052602160045260246000fd5b9052565b600061016060018060a01b038e1683528c60208401528b60408401528a60608401528960808401528060a0840152610eee8184018a610dec565b91505086151560c083015285151560e0830152841515610100830152610f18610120830185610e92565b826101408301529c9b505050505050505050505050565b634e487b7160e01b600052604160045260246000fd5b60008060408385031215610f5857600080fd5b823567ffffffffffffffff80821115610f7057600080fd5b818501915085601f830112610f8457600080fd5b813581811115610f9657610f96610f2f565b604051601f8201601f19908116603f01168101908382118183101715610fbe57610fbe610f2f565b81604052828152886020848701011115610fd757600080fd5b826020860160208301376000602093820184015298969091013596505050505050565b600061010060018060a01b038b16835289602084015288604084015280606084015261102881840189610dec565b915050851515608083015284151560a083015283151560c083015261105060e0830184610e92565b9998505050505050505050565b600181811c9082168061107157607f821691505b60208210810361109157634e487b7160e01b600052602260045260246000fd5b50919050565b60208082526028908201527f4465706f73697420616d6f756e74206d7573742062652067726561746572207460408201526768616e207a65726f60c01b606082015260800190565b634e487b7160e01b600052601160045260246000fd5b80820180821115611108576111086110df565b92915050565b600060018201611120576111206110df565b5060010190565b601f82111561117157600081815260208120601f850160051c8101602086101561114e5750805b601f850160051c820191505b8181101561116d5782815560010161115a565b5050505b505050565b815167ffffffffffffffff81111561119057611190610f2f565b6111a48161119e845461105d565b84611127565b602080601f8311600181146111d957600084156111c15750858301515b600019600386901b1c1916600185901b17855561116d565b600085815260208120601f198616915b82811015611208578886015182559484019460019091019084016111e9565b50858210156112265787850151600019600388901b60f8161c191681555b5050505050600190811b01905550565b818103611241575050565b61124b825461105d565b67ffffffffffffffff81111561126357611263610f2f565b6112718161119e845461105d565b6000601f8211600181146112a5576000831561128d5750848201545b600019600385901b1c1916600184901b17845561130a565b600085815260209020601f19841690600086815260209020845b838110156112df57828601548255600195860195909101906020016112bf565b50858310156112fd5781850154600019600388901b60f8161c191681555b50505060018360011b0184555b505050505056fea26469706673582212206d8a1de0ef6ffc94b9170bacb0f25665cf2be5f7c09682f2ac8b260aea95a7e264736f6c63430008110033",
  "devdoc": {
    "kind": "dev",
    "methods": {},
    "version": 1
  },
  "userdoc": {
    "kind": "user",
    "methods": {},
    "version": 1
  },
  "storageLayout": {
    "storage": [
      {
        "astId": 70,
        "contract": "contracts/Esusu.sol:Esusu",
        "label": "number_of_deposits",
        "offset": 0,
        "slot": "0",
        "type": "t_uint256"
      },
      {
        "astId": 72,
        "contract": "contracts/Esusu.sol:Esusu",
        "label": "txHistoryLen",
        "offset": 0,
        "slot": "1",
        "type": "t_uint256"
      },
      {
        "astId": 74,
        "contract": "contracts/Esusu.sol:Esusu",
        "label": "savinsLen",
        "offset": 0,
        "slot": "2",
        "type": "t_uint256"
      },
      {
        "astId": 76,
        "contract": "contracts/Esusu.sol:Esusu",
        "label": "childAddress",
        "offset": 0,
        "slot": "3",
        "type": "t_address_payable"
      },
      {
        "astId": 80,
        "contract": "contracts/Esusu.sol:Esusu",
        "label": "currentTimeStap",
        "offset": 0,
        "slot": "4",
        "type": "t_uint256"
      },
      {
        "astId": 93,
        "contract": "contracts/Esusu.sol:Esusu",
        "label": "toGetPay",
        "offset": 0,
        "slot": "5",
        "type": "t_uint256"
      },
      {
        "astId": 146,
        "contract": "contracts/Esusu.sol:Esusu",
        "label": "_childSavings",
        "offset": 0,
        "slot": "6",
        "type": "t_mapping(t_address,t_struct(ChildSavings)114_storage)"
      },
      {
        "astId": 153,
        "contract": "contracts/Esusu.sol:Esusu",
        "label": "_txHistory",
        "offset": 0,
        "slot": "7",
        "type": "t_mapping(t_uint256,t_mapping(t_address,t_struct(TxHistory)127_storage))"
      },
      {
        "astId": 388,
        "contract": "contracts/Esusu.sol:Esusu",
        "label": "_savings",
        "offset": 0,
        "slot": "8",
        "type": "t_mapping(t_uint256,t_struct(Savings)383_storage)"
      }
    ],
    "types": {
      "t_address": {
        "encoding": "inplace",
        "label": "address",
        "numberOfBytes": "20"
      },
      "t_address_payable": {
        "encoding": "inplace",
        "label": "address payable",
        "numberOfBytes": "20"
      },
      "t_bool": {
        "encoding": "inplace",
        "label": "bool",
        "numberOfBytes": "1"
      },
      "t_enum(SavingsStatus)359": {
        "encoding": "inplace",
        "label": "enum Esusu.SavingsStatus",
        "numberOfBytes": "1"
      },
      "t_mapping(t_address,t_struct(ChildSavings)114_storage)": {
        "encoding": "mapping",
        "key": "t_address",
        "label": "mapping(address => struct Esusu.ChildSavings)",
        "numberOfBytes": "32",
        "value": "t_struct(ChildSavings)114_storage"
      },
      "t_mapping(t_address,t_struct(TxHistory)127_storage)": {
        "encoding": "mapping",
        "key": "t_address",
        "label": "mapping(address => struct Esusu.TxHistory)",
        "numberOfBytes": "32",
        "value": "t_struct(TxHistory)127_storage"
      },
      "t_mapping(t_uint256,t_mapping(t_address,t_struct(TxHistory)127_storage))": {
        "encoding": "mapping",
        "key": "t_uint256",
        "label": "mapping(uint256 => mapping(address => struct Esusu.TxHistory))",
        "numberOfBytes": "32",
        "value": "t_mapping(t_address,t_struct(TxHistory)127_storage)"
      },
      "t_mapping(t_uint256,t_struct(Savings)383_storage)": {
        "encoding": "mapping",
        "key": "t_uint256",
        "label": "mapping(uint256 => struct Esusu.Savings)",
        "numberOfBytes": "32",
        "value": "t_struct(Savings)383_storage"
      },
      "t_string_storage": {
        "encoding": "bytes",
        "label": "string",
        "numberOfBytes": "32"
      },
      "t_struct(ChildSavings)114_storage": {
        "encoding": "inplace",
        "label": "struct Esusu.ChildSavings",
        "members": [
          {
            "astId": 101,
            "contract": "contracts/Esusu.sol:Esusu",
            "label": "childAge",
            "offset": 0,
            "slot": "0",
            "type": "t_uint256"
          },
          {
            "astId": 103,
            "contract": "contracts/Esusu.sol:Esusu",
            "label": "amount",
            "offset": 0,
            "slot": "1",
            "type": "t_uint256"
          },
          {
            "astId": 105,
            "contract": "contracts/Esusu.sol:Esusu",
            "label": "targetChild",
            "offset": 0,
            "slot": "2",
            "type": "t_uint256"
          },
          {
            "astId": 107,
            "contract": "contracts/Esusu.sol:Esusu",
            "label": "childAddress",
            "offset": 0,
            "slot": "3",
            "type": "t_address_payable"
          },
          {
            "astId": 109,
            "contract": "contracts/Esusu.sol:Esusu",
            "label": "fatherAddress",
            "offset": 0,
            "slot": "4",
            "type": "t_address"
          },
          {
            "astId": 111,
            "contract": "contracts/Esusu.sol:Esusu",
            "label": "canWithdraw",
            "offset": 0,
            "slot": "5",
            "type": "t_uint256"
          },
          {
            "astId": 113,
            "contract": "contracts/Esusu.sol:Esusu",
            "label": "deposited",
            "offset": 0,
            "slot": "6",
            "type": "t_bool"
          }
        ],
        "numberOfBytes": "224"
      },
      "t_struct(Savings)383_storage": {
        "encoding": "inplace",
        "label": "struct Esusu.Savings",
        "members": [
          {
            "astId": 361,
            "contract": "contracts/Esusu.sol:Esusu",
            "label": "owner",
            "offset": 0,
            "slot": "0",
            "type": "t_address_payable"
          },
          {
            "astId": 363,
            "contract": "contracts/Esusu.sol:Esusu",
            "label": "savingsAmount",
            "offset": 0,
            "slot": "1",
            "type": "t_uint256"
          },
          {
            "astId": 365,
            "contract": "contracts/Esusu.sol:Esusu",
            "label": "target",
            "offset": 0,
            "slot": "2",
            "type": "t_uint256"
          },
          {
            "astId": 367,
            "contract": "contracts/Esusu.sol:Esusu",
            "label": "startDate",
            "offset": 0,
            "slot": "3",
            "type": "t_uint256"
          },
          {
            "astId": 369,
            "contract": "contracts/Esusu.sol:Esusu",
            "label": "endDate",
            "offset": 0,
            "slot": "4",
            "type": "t_uint256"
          },
          {
            "astId": 371,
            "contract": "contracts/Esusu.sol:Esusu",
            "label": "purpose",
            "offset": 0,
            "slot": "5",
            "type": "t_string_storage"
          },
          {
            "astId": 373,
            "contract": "contracts/Esusu.sol:Esusu",
            "label": "isInitiated",
            "offset": 0,
            "slot": "6",
            "type": "t_bool"
          },
          {
            "astId": 375,
            "contract": "contracts/Esusu.sol:Esusu",
            "label": "forceWithdraw",
            "offset": 1,
            "slot": "6",
            "type": "t_bool"
          },
          {
            "astId": 377,
            "contract": "contracts/Esusu.sol:Esusu",
            "label": "inSaving",
            "offset": 2,
            "slot": "6",
            "type": "t_bool"
          },
          {
            "astId": 380,
            "contract": "contracts/Esusu.sol:Esusu",
            "label": "savingStatus",
            "offset": 3,
            "slot": "6",
            "type": "t_enum(SavingsStatus)359"
          },
          {
            "astId": 382,
            "contract": "contracts/Esusu.sol:Esusu",
            "label": "nonce",
            "offset": 0,
            "slot": "7",
            "type": "t_uint256"
          }
        ],
        "numberOfBytes": "256"
      },
      "t_struct(TxHistory)127_storage": {
        "encoding": "inplace",
        "label": "struct Esusu.TxHistory",
        "members": [
          {
            "astId": 116,
            "contract": "contracts/Esusu.sol:Esusu",
            "label": "savingsNonce",
            "offset": 0,
            "slot": "0",
            "type": "t_uint256"
          },
          {
            "astId": 118,
            "contract": "contracts/Esusu.sol:Esusu",
            "label": "purpose",
            "offset": 0,
            "slot": "1",
            "type": "t_string_storage"
          },
          {
            "astId": 120,
            "contract": "contracts/Esusu.sol:Esusu",
            "label": "amount",
            "offset": 0,
            "slot": "2",
            "type": "t_uint256"
          },
          {
            "astId": 122,
            "contract": "contracts/Esusu.sol:Esusu",
            "label": "owner",
            "offset": 0,
            "slot": "3",
            "type": "t_address_payable"
          },
          {
            "astId": 124,
            "contract": "contracts/Esusu.sol:Esusu",
            "label": "totalDeposit",
            "offset": 0,
            "slot": "4",
            "type": "t_uint256"
          },
          {
            "astId": 126,
            "contract": "contracts/Esusu.sol:Esusu",
            "label": "time",
            "offset": 0,
            "slot": "5",
            "type": "t_uint256"
          }
        ],
        "numberOfBytes": "192"
      },
      "t_uint256": {
        "encoding": "inplace",
        "label": "uint256",
        "numberOfBytes": "32"
      }
    }
  }
}